{
	"base-prototype/ValueLock.sol": {
		"ValueLock": {
			"abi": [
				{
					"inputs": [
						{
							"internalType": "address",
							"name": "_usdc",
							"type": "address"
						}
					],
					"stateMutability": "nonpayable",
					"type": "constructor"
				},
				{
					"inputs": [],
					"name": "InsufficientBalance",
					"type": "error"
				},
				{
					"inputs": [
						{
							"internalType": "string",
							"name": "message",
							"type": "string"
						}
					],
					"name": "InvalidAddress",
					"type": "error"
				},
				{
					"inputs": [
						{
							"internalType": "string",
							"name": "message",
							"type": "string"
						}
					],
					"name": "InvalidAmount",
					"type": "error"
				},
				{
					"inputs": [],
					"name": "TransferFailed",
					"type": "error"
				},
				{
					"anonymous": false,
					"inputs": [
						{
							"indexed": true,
							"internalType": "address",
							"name": "user",
							"type": "address"
						},
						{
							"indexed": false,
							"internalType": "uint256",
							"name": "amount",
							"type": "uint256"
						}
					],
					"name": "Deposited",
					"type": "event"
				},
				{
					"anonymous": false,
					"inputs": [
						{
							"indexed": true,
							"internalType": "address",
							"name": "user",
							"type": "address"
						},
						{
							"indexed": false,
							"internalType": "uint256",
							"name": "amount",
							"type": "uint256"
						}
					],
					"name": "Withdrawn",
					"type": "event"
				},
				{
					"inputs": [
						{
							"internalType": "address",
							"name": "",
							"type": "address"
						}
					],
					"name": "balances",
					"outputs": [
						{
							"internalType": "uint256",
							"name": "",
							"type": "uint256"
						}
					],
					"stateMutability": "view",
					"type": "function"
				},
				{
					"inputs": [
						{
							"internalType": "uint256",
							"name": "amount",
							"type": "uint256"
						}
					],
					"name": "deposit",
					"outputs": [],
					"stateMutability": "nonpayable",
					"type": "function"
				},
				{
					"inputs": [],
					"name": "usdc",
					"outputs": [
						{
							"internalType": "contract IERC20",
							"name": "",
							"type": "address"
						}
					],
					"stateMutability": "view",
					"type": "function"
				},
				{
					"inputs": [
						{
							"internalType": "uint256",
							"name": "amount",
							"type": "uint256"
						}
					],
					"name": "withdraw",
					"outputs": [],
					"stateMutability": "nonpayable",
					"type": "function"
				}
			],
			"devdoc": {
				"kind": "dev",
				"methods": {},
				"version": 1
			},
			"evm": {
				"assembly": "    /* \"base-prototype/ValueLock.sol\":264:1600  contract ValueLock {... */\n  mstore(0x40, 0xa0)\n    /* \"base-prototype/ValueLock.sol\":655:803  constructor(address _usdc) {... */\n  callvalue\n  dup1\n  iszero\n  tag_1\n  jumpi\n  0x00\n  dup1\n  revert\ntag_1:\n  pop\n  mload(0x40)\n  sub(codesize, bytecodeSize)\n  dup1\n  bytecodeSize\n  dup4\n  codecopy\n  dup2\n  dup2\n  add\n  0x40\n  mstore\n  dup2\n  add\n  swap1\n  tag_2\n  swap2\n  swap1\n  tag_3\n  jump\t// in\ntag_2:\n    /* \"base-prototype/ValueLock.sol\":713:714  0 */\n  0x00\n    /* \"base-prototype/ValueLock.sol\":696:715  _usdc == address(0) */\n  0xffffffffffffffffffffffffffffffffffffffff\n  and\n    /* \"base-prototype/ValueLock.sol\":696:701  _usdc */\n  dup2\n    /* \"base-prototype/ValueLock.sol\":696:715  _usdc == address(0) */\n  0xffffffffffffffffffffffffffffffffffffffff\n  and\n  sub\n    /* \"base-prototype/ValueLock.sol\":692:767  if (_usdc == address(0)) { revert InvalidAddress(\"Invalid USDC address\"); } */\n  tag_6\n  jumpi\n    /* \"base-prototype/ValueLock.sol\":726:764  InvalidAddress(\"Invalid USDC address\") */\n  mload(0x40)\n  0x161eb54200000000000000000000000000000000000000000000000000000000\n  dup2\n  mstore\n  0x04\n  add\n  tag_7\n  swap1\n  tag_8\n  jump\t// in\ntag_7:\n  mload(0x40)\n  dup1\n  swap2\n  sub\n  swap1\n  revert\n    /* \"base-prototype/ValueLock.sol\":692:767  if (_usdc == address(0)) { revert InvalidAddress(\"Invalid USDC address\"); } */\ntag_6:\n    /* \"base-prototype/ValueLock.sol\":790:795  _usdc */\n  dup1\n    /* \"base-prototype/ValueLock.sol\":776:796  usdc = IERC20(_usdc) */\n  0xffffffffffffffffffffffffffffffffffffffff\n  and\n  0x80\n  dup2\n  0xffffffffffffffffffffffffffffffffffffffff\n  and\n  dup2\n  mstore\n  pop\n  pop\n    /* \"base-prototype/ValueLock.sol\":655:803  constructor(address _usdc) {... */\n  pop\n    /* \"base-prototype/ValueLock.sol\":264:1600  contract ValueLock {... */\n  jump(tag_9)\n    /* \"#utility.yul\":88:205   */\ntag_11:\n    /* \"#utility.yul\":197:198   */\n  0x00\n    /* \"#utility.yul\":194:195   */\n  dup1\n    /* \"#utility.yul\":187:199   */\n  revert\n    /* \"#utility.yul\":334:460   */\ntag_13:\n    /* \"#utility.yul\":371:378   */\n  0x00\n    /* \"#utility.yul\":411:453   */\n  0xffffffffffffffffffffffffffffffffffffffff\n    /* \"#utility.yul\":404:409   */\n  dup3\n    /* \"#utility.yul\":400:454   */\n  and\n    /* \"#utility.yul\":389:454   */\n  swap1\n  pop\n    /* \"#utility.yul\":334:460   */\n  swap2\n  swap1\n  pop\n  jump\t// out\n    /* \"#utility.yul\":466:562   */\ntag_14:\n    /* \"#utility.yul\":503:510   */\n  0x00\n    /* \"#utility.yul\":532:556   */\n  tag_26\n    /* \"#utility.yul\":550:555   */\n  dup3\n    /* \"#utility.yul\":532:556   */\n  tag_13\n  jump\t// in\ntag_26:\n    /* \"#utility.yul\":521:556   */\n  swap1\n  pop\n    /* \"#utility.yul\":466:562   */\n  swap2\n  swap1\n  pop\n  jump\t// out\n    /* \"#utility.yul\":568:690   */\ntag_15:\n    /* \"#utility.yul\":641:665   */\n  tag_28\n    /* \"#utility.yul\":659:664   */\n  dup2\n    /* \"#utility.yul\":641:665   */\n  tag_14\n  jump\t// in\ntag_28:\n    /* \"#utility.yul\":634:639   */\n  dup2\n    /* \"#utility.yul\":631:666   */\n  eq\n    /* \"#utility.yul\":621:684   */\n  tag_29\n  jumpi\n    /* \"#utility.yul\":680:681   */\n  0x00\n    /* \"#utility.yul\":677:678   */\n  dup1\n    /* \"#utility.yul\":670:682   */\n  revert\n    /* \"#utility.yul\":621:684   */\ntag_29:\n    /* \"#utility.yul\":568:690   */\n  pop\n  jump\t// out\n    /* \"#utility.yul\":696:839   */\ntag_16:\n    /* \"#utility.yul\":753:758   */\n  0x00\n    /* \"#utility.yul\":784:790   */\n  dup2\n    /* \"#utility.yul\":778:791   */\n  mload\n    /* \"#utility.yul\":769:791   */\n  swap1\n  pop\n    /* \"#utility.yul\":800:833   */\n  tag_31\n    /* \"#utility.yul\":827:832   */\n  dup2\n    /* \"#utility.yul\":800:833   */\n  tag_15\n  jump\t// in\ntag_31:\n    /* \"#utility.yul\":696:839   */\n  swap3\n  swap2\n  pop\n  pop\n  jump\t// out\n    /* \"#utility.yul\":845:1196   */\ntag_3:\n    /* \"#utility.yul\":915:921   */\n  0x00\n    /* \"#utility.yul\":964:966   */\n  0x20\n    /* \"#utility.yul\":952:961   */\n  dup3\n    /* \"#utility.yul\":943:950   */\n  dup5\n    /* \"#utility.yul\":939:962   */\n  sub\n    /* \"#utility.yul\":935:967   */\n  slt\n    /* \"#utility.yul\":932:1051   */\n  iszero\n  tag_33\n  jumpi\n    /* \"#utility.yul\":970:1049   */\n  tag_34\n  tag_11\n  jump\t// in\ntag_34:\n    /* \"#utility.yul\":932:1051   */\ntag_33:\n    /* \"#utility.yul\":1090:1091   */\n  0x00\n    /* \"#utility.yul\":1115:1179   */\n  tag_35\n    /* \"#utility.yul\":1171:1178   */\n  dup5\n    /* \"#utility.yul\":1162:1168   */\n  dup3\n    /* \"#utility.yul\":1151:1160   */\n  dup6\n    /* \"#utility.yul\":1147:1169   */\n  add\n    /* \"#utility.yul\":1115:1179   */\n  tag_16\n  jump\t// in\ntag_35:\n    /* \"#utility.yul\":1105:1179   */\n  swap2\n  pop\n    /* \"#utility.yul\":1061:1189   */\n  pop\n    /* \"#utility.yul\":845:1196   */\n  swap3\n  swap2\n  pop\n  pop\n  jump\t// out\n    /* \"#utility.yul\":1202:1371   */\ntag_17:\n    /* \"#utility.yul\":1286:1297   */\n  0x00\n    /* \"#utility.yul\":1320:1326   */\n  dup3\n    /* \"#utility.yul\":1315:1318   */\n  dup3\n    /* \"#utility.yul\":1308:1327   */\n  mstore\n    /* \"#utility.yul\":1360:1364   */\n  0x20\n    /* \"#utility.yul\":1355:1358   */\n  dup3\n    /* \"#utility.yul\":1351:1365   */\n  add\n    /* \"#utility.yul\":1336:1365   */\n  swap1\n  pop\n    /* \"#utility.yul\":1202:1371   */\n  swap3\n  swap2\n  pop\n  pop\n  jump\t// out\n    /* \"#utility.yul\":1377:1547   */\ntag_18:\n    /* \"#utility.yul\":1517:1539   */\n  0x496e76616c696420555344432061646472657373000000000000000000000000\n    /* \"#utility.yul\":1513:1514   */\n  0x00\n    /* \"#utility.yul\":1505:1511   */\n  dup3\n    /* \"#utility.yul\":1501:1515   */\n  add\n    /* \"#utility.yul\":1494:1540   */\n  mstore\n    /* \"#utility.yul\":1377:1547   */\n  pop\n  jump\t// out\n    /* \"#utility.yul\":1553:1919   */\ntag_19:\n    /* \"#utility.yul\":1695:1698   */\n  0x00\n    /* \"#utility.yul\":1716:1783   */\n  tag_39\n    /* \"#utility.yul\":1780:1782   */\n  0x14\n    /* \"#utility.yul\":1775:1778   */\n  dup4\n    /* \"#utility.yul\":1716:1783   */\n  tag_17\n  jump\t// in\ntag_39:\n    /* \"#utility.yul\":1709:1783   */\n  swap2\n  pop\n    /* \"#utility.yul\":1792:1885   */\n  tag_40\n    /* \"#utility.yul\":1881:1884   */\n  dup3\n    /* \"#utility.yul\":1792:1885   */\n  tag_18\n  jump\t// in\ntag_40:\n    /* \"#utility.yul\":1910:1912   */\n  0x20\n    /* \"#utility.yul\":1905:1908   */\n  dup3\n    /* \"#utility.yul\":1901:1913   */\n  add\n    /* \"#utility.yul\":1894:1913   */\n  swap1\n  pop\n    /* \"#utility.yul\":1553:1919   */\n  swap2\n  swap1\n  pop\n  jump\t// out\n    /* \"#utility.yul\":1925:2344   */\ntag_8:\n    /* \"#utility.yul\":2091:2095   */\n  0x00\n    /* \"#utility.yul\":2129:2131   */\n  0x20\n    /* \"#utility.yul\":2118:2127   */\n  dup3\n    /* \"#utility.yul\":2114:2132   */\n  add\n    /* \"#utility.yul\":2106:2132   */\n  swap1\n  pop\n    /* \"#utility.yul\":2178:2187   */\n  dup2\n    /* \"#utility.yul\":2172:2176   */\n  dup2\n    /* \"#utility.yul\":2168:2188   */\n  sub\n    /* \"#utility.yul\":2164:2165   */\n  0x00\n    /* \"#utility.yul\":2153:2162   */\n  dup4\n    /* \"#utility.yul\":2149:2166   */\n  add\n    /* \"#utility.yul\":2142:2189   */\n  mstore\n    /* \"#utility.yul\":2206:2337   */\n  tag_42\n    /* \"#utility.yul\":2332:2336   */\n  dup2\n    /* \"#utility.yul\":2206:2337   */\n  tag_19\n  jump\t// in\ntag_42:\n    /* \"#utility.yul\":2198:2337   */\n  swap1\n  pop\n    /* \"#utility.yul\":1925:2344   */\n  swap2\n  swap1\n  pop\n  jump\t// out\n    /* \"base-prototype/ValueLock.sol\":264:1600  contract ValueLock {... */\ntag_9:\n  mload(0x80)\n  codecopy(0x00, dataOffset(sub_0), dataSize(sub_0))\n  0x00\n  assignImmutable(\"0x81e080ffc23e8b8d44dd829bc823229e92b893eb1d8f624419d3f5682eb97fc3\")\n  return(0x00, dataSize(sub_0))\nstop\n\nsub_0: assembly {\n        /* \"base-prototype/ValueLock.sol\":264:1600  contract ValueLock {... */\n      mstore(0x40, 0x80)\n      callvalue\n      dup1\n      iszero\n      tag_1\n      jumpi\n      0x00\n      dup1\n      revert\n    tag_1:\n      pop\n      jumpi(tag_2, lt(calldatasize, 0x04))\n      shr(0xe0, calldataload(0x00))\n      dup1\n      0x27e235e3\n      eq\n      tag_3\n      jumpi\n      dup1\n      0x2e1a7d4d\n      eq\n      tag_4\n      jumpi\n      dup1\n      0x3e413bee\n      eq\n      tag_5\n      jumpi\n      dup1\n      0xb6b55f25\n      eq\n      tag_6\n      jumpi\n    tag_2:\n      0x00\n      dup1\n      revert\n        /* \"base-prototype/ValueLock.sol\":325:365  mapping(address => uint) public balances */\n    tag_3:\n      tag_7\n      0x04\n      dup1\n      calldatasize\n      sub\n      dup2\n      add\n      swap1\n      tag_8\n      swap2\n      swap1\n      tag_9\n      jump\t// in\n    tag_8:\n      tag_10\n      jump\t// in\n    tag_7:\n      mload(0x40)\n      tag_11\n      swap2\n      swap1\n      tag_12\n      jump\t// in\n    tag_11:\n      mload(0x40)\n      dup1\n      swap2\n      sub\n      swap1\n      return\n        /* \"base-prototype/ValueLock.sol\":1171:1598  function withdraw(uint amount) external {... */\n    tag_4:\n      tag_13\n      0x04\n      dup1\n      calldatasize\n      sub\n      dup2\n      add\n      swap1\n      tag_14\n      swap2\n      swap1\n      tag_15\n      jump\t// in\n    tag_14:\n      tag_16\n      jump\t// in\n    tag_13:\n      stop\n        /* \"base-prototype/ValueLock.sol\":290:318  IERC20 public immutable usdc */\n    tag_5:\n      tag_17\n      tag_18\n      jump\t// in\n    tag_17:\n      mload(0x40)\n      tag_19\n      swap2\n      swap1\n      tag_20\n      jump\t// in\n    tag_19:\n      mload(0x40)\n      dup1\n      swap2\n      sub\n      swap1\n      return\n        /* \"base-prototype/ValueLock.sol\":809:1165  function deposit(uint amount) external {... */\n    tag_6:\n      tag_21\n      0x04\n      dup1\n      calldatasize\n      sub\n      dup2\n      add\n      swap1\n      tag_22\n      swap2\n      swap1\n      tag_15\n      jump\t// in\n    tag_22:\n      tag_23\n      jump\t// in\n    tag_21:\n      stop\n        /* \"base-prototype/ValueLock.sol\":325:365  mapping(address => uint) public balances */\n    tag_10:\n      mstore(0x20, 0x00)\n      dup1\n      0x00\n      mstore\n      keccak256(0x00, 0x40)\n      0x00\n      swap2\n      pop\n      swap1\n      pop\n      sload\n      dup2\n      jump\t// out\n        /* \"base-prototype/ValueLock.sol\":1171:1598  function withdraw(uint amount) external {... */\n    tag_16:\n        /* \"base-prototype/ValueLock.sol\":1235:1236  0 */\n      0x00\n        /* \"base-prototype/ValueLock.sol\":1225:1231  amount */\n      dup2\n        /* \"base-prototype/ValueLock.sol\":1225:1236  amount <= 0 */\n      gt\n        /* \"base-prototype/ValueLock.sol\":1221:1303  if (amount <= 0) { revert InvalidAmount(\"Withdrawal must be greater than zero\"); } */\n      tag_25\n      jumpi\n        /* \"base-prototype/ValueLock.sol\":1247:1300  InvalidAmount(\"Withdrawal must be greater than zero\") */\n      mload(0x40)\n      0xb132ad4a00000000000000000000000000000000000000000000000000000000\n      dup2\n      mstore\n      0x04\n      add\n      tag_26\n      swap1\n      tag_27\n      jump\t// in\n    tag_26:\n      mload(0x40)\n      dup1\n      swap2\n      sub\n      swap1\n      revert\n        /* \"base-prototype/ValueLock.sol\":1221:1303  if (amount <= 0) { revert InvalidAmount(\"Withdrawal must be greater than zero\"); } */\n    tag_25:\n        /* \"base-prototype/ValueLock.sol\":1325:1333  balances */\n      0x00\n        /* \"base-prototype/ValueLock.sol\":1325:1345  balances[msg.sender] */\n      dup1\n        /* \"base-prototype/ValueLock.sol\":1334:1344  msg.sender */\n      caller\n        /* \"base-prototype/ValueLock.sol\":1325:1345  balances[msg.sender] */\n      0xffffffffffffffffffffffffffffffffffffffff\n      and\n      0xffffffffffffffffffffffffffffffffffffffff\n      and\n      dup2\n      mstore\n      0x20\n      add\n      swap1\n      dup2\n      mstore\n      0x20\n      add\n      0x00\n      keccak256\n      sload\n        /* \"base-prototype/ValueLock.sol\":1316:1322  amount */\n      dup2\n        /* \"base-prototype/ValueLock.sol\":1316:1345  amount > balances[msg.sender] */\n      gt\n        /* \"base-prototype/ValueLock.sol\":1312:1380  if (amount > balances[msg.sender]) { revert InsufficientBalance(); } */\n      iszero\n      tag_28\n      jumpi\n        /* \"base-prototype/ValueLock.sol\":1356:1377  InsufficientBalance() */\n      mload(0x40)\n      0xf4d678b800000000000000000000000000000000000000000000000000000000\n      dup2\n      mstore\n      0x04\n      add\n      mload(0x40)\n      dup1\n      swap2\n      sub\n      swap1\n      revert\n        /* \"base-prototype/ValueLock.sol\":1312:1380  if (amount > balances[msg.sender]) { revert InsufficientBalance(); } */\n    tag_28:\n        /* \"base-prototype/ValueLock.sol\":1414:1420  amount */\n      dup1\n        /* \"base-prototype/ValueLock.sol\":1390:1398  balances */\n      0x00\n        /* \"base-prototype/ValueLock.sol\":1390:1410  balances[msg.sender] */\n      dup1\n        /* \"base-prototype/ValueLock.sol\":1399:1409  msg.sender */\n      caller\n        /* \"base-prototype/ValueLock.sol\":1390:1410  balances[msg.sender] */\n      0xffffffffffffffffffffffffffffffffffffffff\n      and\n      0xffffffffffffffffffffffffffffffffffffffff\n      and\n      dup2\n      mstore\n      0x20\n      add\n      swap1\n      dup2\n      mstore\n      0x20\n      add\n      0x00\n      keccak256\n      0x00\n        /* \"base-prototype/ValueLock.sol\":1390:1420  balances[msg.sender] -= amount */\n      dup3\n      dup3\n      sload\n      tag_29\n      swap2\n      swap1\n      tag_30\n      jump\t// in\n    tag_29:\n      swap3\n      pop\n      pop\n      dup2\n      swap1\n      sstore\n      pop\n        /* \"base-prototype/ValueLock.sol\":1431:1443  bool success */\n      0x00\n        /* \"base-prototype/ValueLock.sol\":1446:1450  usdc */\n      immutable(\"0x81e080ffc23e8b8d44dd829bc823229e92b893eb1d8f624419d3f5682eb97fc3\")\n        /* \"base-prototype/ValueLock.sol\":1446:1459  usdc.transfer */\n      0xffffffffffffffffffffffffffffffffffffffff\n      and\n      0xa9059cbb\n        /* \"base-prototype/ValueLock.sol\":1460:1470  msg.sender */\n      caller\n        /* \"base-prototype/ValueLock.sol\":1472:1478  amount */\n      dup5\n        /* \"base-prototype/ValueLock.sol\":1446:1479  usdc.transfer(msg.sender, amount) */\n      mload(0x40)\n      dup4\n      0xffffffff\n      and\n      0xe0\n      shl\n      dup2\n      mstore\n      0x04\n      add\n      tag_31\n      swap3\n      swap2\n      swap1\n      tag_32\n      jump\t// in\n    tag_31:\n      0x20\n      mload(0x40)\n      dup1\n      dup4\n      sub\n      dup2\n      0x00\n      dup8\n      gas\n      call\n      iszero\n      dup1\n      iszero\n      tag_34\n      jumpi\n      returndatasize\n      0x00\n      dup1\n      returndatacopy\n      revert(0x00, returndatasize)\n    tag_34:\n      pop\n      pop\n      pop\n      pop\n      mload(0x40)\n      returndatasize\n      not(0x1f)\n      0x1f\n      dup3\n      add\n      and\n      dup3\n      add\n      dup1\n      0x40\n      mstore\n      pop\n      dup2\n      add\n      swap1\n      tag_35\n      swap2\n      swap1\n      tag_36\n      jump\t// in\n    tag_35:\n        /* \"base-prototype/ValueLock.sol\":1431:1479  bool success = usdc.transfer(msg.sender, amount) */\n      swap1\n      pop\n        /* \"base-prototype/ValueLock.sol\":1504:1509  false */\n      0x00\n        /* \"base-prototype/ValueLock.sol\":1493:1509  success == false */\n      iszero\n      iszero\n        /* \"base-prototype/ValueLock.sol\":1493:1500  success */\n      dup2\n        /* \"base-prototype/ValueLock.sol\":1493:1509  success == false */\n      iszero\n      iszero\n      sub\n        /* \"base-prototype/ValueLock.sol\":1489:1539  if (success == false) { revert TransferFailed(); } */\n      tag_37\n      jumpi\n        /* \"base-prototype/ValueLock.sol\":1520:1536  TransferFailed() */\n      mload(0x40)\n      0x90b8ec1800000000000000000000000000000000000000000000000000000000\n      dup2\n      mstore\n      0x04\n      add\n      mload(0x40)\n      dup1\n      swap2\n      sub\n      swap1\n      revert\n        /* \"base-prototype/ValueLock.sol\":1489:1539  if (success == false) { revert TransferFailed(); } */\n    tag_37:\n        /* \"base-prototype/ValueLock.sol\":1572:1582  msg.sender */\n      caller\n        /* \"base-prototype/ValueLock.sol\":1562:1591  Withdrawn(msg.sender, amount) */\n      0xffffffffffffffffffffffffffffffffffffffff\n      and\n      0x7084f5476618d8e60b11ef0d7d3f06914655adb8793e28ff7f018d4c76d505d5\n        /* \"base-prototype/ValueLock.sol\":1584:1590  amount */\n      dup4\n        /* \"base-prototype/ValueLock.sol\":1562:1591  Withdrawn(msg.sender, amount) */\n      mload(0x40)\n      tag_38\n      swap2\n      swap1\n      tag_12\n      jump\t// in\n    tag_38:\n      mload(0x40)\n      dup1\n      swap2\n      sub\n      swap1\n      log2\n        /* \"base-prototype/ValueLock.sol\":1211:1598  {... */\n      pop\n        /* \"base-prototype/ValueLock.sol\":1171:1598  function withdraw(uint amount) external {... */\n      pop\n      jump\t// out\n        /* \"base-prototype/ValueLock.sol\":290:318  IERC20 public immutable usdc */\n    tag_18:\n      immutable(\"0x81e080ffc23e8b8d44dd829bc823229e92b893eb1d8f624419d3f5682eb97fc3\")\n      dup2\n      jump\t// out\n        /* \"base-prototype/ValueLock.sol\":809:1165  function deposit(uint amount) external {... */\n    tag_23:\n        /* \"base-prototype/ValueLock.sol\":872:873  0 */\n      0x00\n        /* \"base-prototype/ValueLock.sol\":862:868  amount */\n      dup2\n        /* \"base-prototype/ValueLock.sol\":862:873  amount <= 0 */\n      gt\n        /* \"base-prototype/ValueLock.sol\":858:937  if (amount <= 0) { revert InvalidAmount(\"Deposit must be greater than zero\"); } */\n      tag_40\n      jumpi\n        /* \"base-prototype/ValueLock.sol\":884:934  InvalidAmount(\"Deposit must be greater than zero\") */\n      mload(0x40)\n      0xb132ad4a00000000000000000000000000000000000000000000000000000000\n      dup2\n      mstore\n      0x04\n      add\n      tag_41\n      swap1\n      tag_42\n      jump\t// in\n    tag_41:\n      mload(0x40)\n      dup1\n      swap2\n      sub\n      swap1\n      revert\n        /* \"base-prototype/ValueLock.sol\":858:937  if (amount <= 0) { revert InvalidAmount(\"Deposit must be greater than zero\"); } */\n    tag_40:\n        /* \"base-prototype/ValueLock.sol\":947:959  bool success */\n      0x00\n        /* \"base-prototype/ValueLock.sol\":962:966  usdc */\n      immutable(\"0x81e080ffc23e8b8d44dd829bc823229e92b893eb1d8f624419d3f5682eb97fc3\")\n        /* \"base-prototype/ValueLock.sol\":962:979  usdc.transferFrom */\n      0xffffffffffffffffffffffffffffffffffffffff\n      and\n      0x23b872dd\n        /* \"base-prototype/ValueLock.sol\":980:990  msg.sender */\n      caller\n        /* \"base-prototype/ValueLock.sol\":1000:1004  this */\n      address\n        /* \"base-prototype/ValueLock.sol\":1007:1013  amount */\n      dup6\n        /* \"base-prototype/ValueLock.sol\":962:1014  usdc.transferFrom(msg.sender, address(this), amount) */\n      mload(0x40)\n      dup5\n      0xffffffff\n      and\n      0xe0\n      shl\n      dup2\n      mstore\n      0x04\n      add\n      tag_43\n      swap4\n      swap3\n      swap2\n      swap1\n      tag_44\n      jump\t// in\n    tag_43:\n      0x20\n      mload(0x40)\n      dup1\n      dup4\n      sub\n      dup2\n      0x00\n      dup8\n      gas\n      call\n      iszero\n      dup1\n      iszero\n      tag_46\n      jumpi\n      returndatasize\n      0x00\n      dup1\n      returndatacopy\n      revert(0x00, returndatasize)\n    tag_46:\n      pop\n      pop\n      pop\n      pop\n      mload(0x40)\n      returndatasize\n      not(0x1f)\n      0x1f\n      dup3\n      add\n      and\n      dup3\n      add\n      dup1\n      0x40\n      mstore\n      pop\n      dup2\n      add\n      swap1\n      tag_47\n      swap2\n      swap1\n      tag_36\n      jump\t// in\n    tag_47:\n        /* \"base-prototype/ValueLock.sol\":947:1014  bool success = usdc.transferFrom(msg.sender, address(this), amount) */\n      swap1\n      pop\n        /* \"base-prototype/ValueLock.sol\":1039:1044  false */\n      0x00\n        /* \"base-prototype/ValueLock.sol\":1028:1044  success == false */\n      iszero\n      iszero\n        /* \"base-prototype/ValueLock.sol\":1028:1035  success */\n      dup2\n        /* \"base-prototype/ValueLock.sol\":1028:1044  success == false */\n      iszero\n      iszero\n      sub\n        /* \"base-prototype/ValueLock.sol\":1024:1074  if (success == false) { revert TransferFailed(); } */\n      tag_48\n      jumpi\n        /* \"base-prototype/ValueLock.sol\":1055:1071  TransferFailed() */\n      mload(0x40)\n      0x90b8ec1800000000000000000000000000000000000000000000000000000000\n      dup2\n      mstore\n      0x04\n      add\n      mload(0x40)\n      dup1\n      swap2\n      sub\n      swap1\n      revert\n        /* \"base-prototype/ValueLock.sol\":1024:1074  if (success == false) { revert TransferFailed(); } */\n    tag_48:\n        /* \"base-prototype/ValueLock.sol\":1108:1114  amount */\n      dup2\n        /* \"base-prototype/ValueLock.sol\":1084:1092  balances */\n      0x00\n        /* \"base-prototype/ValueLock.sol\":1084:1104  balances[msg.sender] */\n      dup1\n        /* \"base-prototype/ValueLock.sol\":1093:1103  msg.sender */\n      caller\n        /* \"base-prototype/ValueLock.sol\":1084:1104  balances[msg.sender] */\n      0xffffffffffffffffffffffffffffffffffffffff\n      and\n      0xffffffffffffffffffffffffffffffffffffffff\n      and\n      dup2\n      mstore\n      0x20\n      add\n      swap1\n      dup2\n      mstore\n      0x20\n      add\n      0x00\n      keccak256\n      0x00\n        /* \"base-prototype/ValueLock.sol\":1084:1114  balances[msg.sender] += amount */\n      dup3\n      dup3\n      sload\n      tag_49\n      swap2\n      swap1\n      tag_50\n      jump\t// in\n    tag_49:\n      swap3\n      pop\n      pop\n      dup2\n      swap1\n      sstore\n      pop\n        /* \"base-prototype/ValueLock.sol\":1139:1149  msg.sender */\n      caller\n        /* \"base-prototype/ValueLock.sol\":1129:1158  Deposited(msg.sender, amount) */\n      0xffffffffffffffffffffffffffffffffffffffff\n      and\n      0x2da466a7b24304f47e87fa2e1e5a81b9831ce54fec19055ce277ca2f39ba42c4\n        /* \"base-prototype/ValueLock.sol\":1151:1157  amount */\n      dup4\n        /* \"base-prototype/ValueLock.sol\":1129:1158  Deposited(msg.sender, amount) */\n      mload(0x40)\n      tag_51\n      swap2\n      swap1\n      tag_12\n      jump\t// in\n    tag_51:\n      mload(0x40)\n      dup1\n      swap2\n      sub\n      swap1\n      log2\n        /* \"base-prototype/ValueLock.sol\":848:1165  {... */\n      pop\n        /* \"base-prototype/ValueLock.sol\":809:1165  function deposit(uint amount) external {... */\n      pop\n      jump\t// out\n        /* \"#utility.yul\":88:205   */\n    tag_53:\n        /* \"#utility.yul\":197:198   */\n      0x00\n        /* \"#utility.yul\":194:195   */\n      dup1\n        /* \"#utility.yul\":187:199   */\n      revert\n        /* \"#utility.yul\":334:460   */\n    tag_55:\n        /* \"#utility.yul\":371:378   */\n      0x00\n        /* \"#utility.yul\":411:453   */\n      0xffffffffffffffffffffffffffffffffffffffff\n        /* \"#utility.yul\":404:409   */\n      dup3\n        /* \"#utility.yul\":400:454   */\n      and\n        /* \"#utility.yul\":389:454   */\n      swap1\n      pop\n        /* \"#utility.yul\":334:460   */\n      swap2\n      swap1\n      pop\n      jump\t// out\n        /* \"#utility.yul\":466:562   */\n    tag_56:\n        /* \"#utility.yul\":503:510   */\n      0x00\n        /* \"#utility.yul\":532:556   */\n      tag_84\n        /* \"#utility.yul\":550:555   */\n      dup3\n        /* \"#utility.yul\":532:556   */\n      tag_55\n      jump\t// in\n    tag_84:\n        /* \"#utility.yul\":521:556   */\n      swap1\n      pop\n        /* \"#utility.yul\":466:562   */\n      swap2\n      swap1\n      pop\n      jump\t// out\n        /* \"#utility.yul\":568:690   */\n    tag_57:\n        /* \"#utility.yul\":641:665   */\n      tag_86\n        /* \"#utility.yul\":659:664   */\n      dup2\n        /* \"#utility.yul\":641:665   */\n      tag_56\n      jump\t// in\n    tag_86:\n        /* \"#utility.yul\":634:639   */\n      dup2\n        /* \"#utility.yul\":631:666   */\n      eq\n        /* \"#utility.yul\":621:684   */\n      tag_87\n      jumpi\n        /* \"#utility.yul\":680:681   */\n      0x00\n        /* \"#utility.yul\":677:678   */\n      dup1\n        /* \"#utility.yul\":670:682   */\n      revert\n        /* \"#utility.yul\":621:684   */\n    tag_87:\n        /* \"#utility.yul\":568:690   */\n      pop\n      jump\t// out\n        /* \"#utility.yul\":696:835   */\n    tag_58:\n        /* \"#utility.yul\":742:747   */\n      0x00\n        /* \"#utility.yul\":780:786   */\n      dup2\n        /* \"#utility.yul\":767:787   */\n      calldataload\n        /* \"#utility.yul\":758:787   */\n      swap1\n      pop\n        /* \"#utility.yul\":796:829   */\n      tag_89\n        /* \"#utility.yul\":823:828   */\n      dup2\n        /* \"#utility.yul\":796:829   */\n      tag_57\n      jump\t// in\n    tag_89:\n        /* \"#utility.yul\":696:835   */\n      swap3\n      swap2\n      pop\n      pop\n      jump\t// out\n        /* \"#utility.yul\":841:1170   */\n    tag_9:\n        /* \"#utility.yul\":900:906   */\n      0x00\n        /* \"#utility.yul\":949:951   */\n      0x20\n        /* \"#utility.yul\":937:946   */\n      dup3\n        /* \"#utility.yul\":928:935   */\n      dup5\n        /* \"#utility.yul\":924:947   */\n      sub\n        /* \"#utility.yul\":920:952   */\n      slt\n        /* \"#utility.yul\":917:1036   */\n      iszero\n      tag_91\n      jumpi\n        /* \"#utility.yul\":955:1034   */\n      tag_92\n      tag_53\n      jump\t// in\n    tag_92:\n        /* \"#utility.yul\":917:1036   */\n    tag_91:\n        /* \"#utility.yul\":1075:1076   */\n      0x00\n        /* \"#utility.yul\":1100:1153   */\n      tag_93\n        /* \"#utility.yul\":1145:1152   */\n      dup5\n        /* \"#utility.yul\":1136:1142   */\n      dup3\n        /* \"#utility.yul\":1125:1134   */\n      dup6\n        /* \"#utility.yul\":1121:1143   */\n      add\n        /* \"#utility.yul\":1100:1153   */\n      tag_58\n      jump\t// in\n    tag_93:\n        /* \"#utility.yul\":1090:1153   */\n      swap2\n      pop\n        /* \"#utility.yul\":1046:1163   */\n      pop\n        /* \"#utility.yul\":841:1170   */\n      swap3\n      swap2\n      pop\n      pop\n      jump\t// out\n        /* \"#utility.yul\":1176:1253   */\n    tag_59:\n        /* \"#utility.yul\":1213:1220   */\n      0x00\n        /* \"#utility.yul\":1242:1247   */\n      dup2\n        /* \"#utility.yul\":1231:1247   */\n      swap1\n      pop\n        /* \"#utility.yul\":1176:1253   */\n      swap2\n      swap1\n      pop\n      jump\t// out\n        /* \"#utility.yul\":1259:1377   */\n    tag_60:\n        /* \"#utility.yul\":1346:1370   */\n      tag_96\n        /* \"#utility.yul\":1364:1369   */\n      dup2\n        /* \"#utility.yul\":1346:1370   */\n      tag_59\n      jump\t// in\n    tag_96:\n        /* \"#utility.yul\":1341:1344   */\n      dup3\n        /* \"#utility.yul\":1334:1371   */\n      mstore\n        /* \"#utility.yul\":1259:1377   */\n      pop\n      pop\n      jump\t// out\n        /* \"#utility.yul\":1383:1605   */\n    tag_12:\n        /* \"#utility.yul\":1476:1480   */\n      0x00\n        /* \"#utility.yul\":1514:1516   */\n      0x20\n        /* \"#utility.yul\":1503:1512   */\n      dup3\n        /* \"#utility.yul\":1499:1517   */\n      add\n        /* \"#utility.yul\":1491:1517   */\n      swap1\n      pop\n        /* \"#utility.yul\":1527:1598   */\n      tag_98\n        /* \"#utility.yul\":1595:1596   */\n      0x00\n        /* \"#utility.yul\":1584:1593   */\n      dup4\n        /* \"#utility.yul\":1580:1597   */\n      add\n        /* \"#utility.yul\":1571:1577   */\n      dup5\n        /* \"#utility.yul\":1527:1598   */\n      tag_60\n      jump\t// in\n    tag_98:\n        /* \"#utility.yul\":1383:1605   */\n      swap3\n      swap2\n      pop\n      pop\n      jump\t// out\n        /* \"#utility.yul\":1611:1733   */\n    tag_61:\n        /* \"#utility.yul\":1684:1708   */\n      tag_100\n        /* \"#utility.yul\":1702:1707   */\n      dup2\n        /* \"#utility.yul\":1684:1708   */\n      tag_59\n      jump\t// in\n    tag_100:\n        /* \"#utility.yul\":1677:1682   */\n      dup2\n        /* \"#utility.yul\":1674:1709   */\n      eq\n        /* \"#utility.yul\":1664:1727   */\n      tag_101\n      jumpi\n        /* \"#utility.yul\":1723:1724   */\n      0x00\n        /* \"#utility.yul\":1720:1721   */\n      dup1\n        /* \"#utility.yul\":1713:1725   */\n      revert\n        /* \"#utility.yul\":1664:1727   */\n    tag_101:\n        /* \"#utility.yul\":1611:1733   */\n      pop\n      jump\t// out\n        /* \"#utility.yul\":1739:1878   */\n    tag_62:\n        /* \"#utility.yul\":1785:1790   */\n      0x00\n        /* \"#utility.yul\":1823:1829   */\n      dup2\n        /* \"#utility.yul\":1810:1830   */\n      calldataload\n        /* \"#utility.yul\":1801:1830   */\n      swap1\n      pop\n        /* \"#utility.yul\":1839:1872   */\n      tag_103\n        /* \"#utility.yul\":1866:1871   */\n      dup2\n        /* \"#utility.yul\":1839:1872   */\n      tag_61\n      jump\t// in\n    tag_103:\n        /* \"#utility.yul\":1739:1878   */\n      swap3\n      swap2\n      pop\n      pop\n      jump\t// out\n        /* \"#utility.yul\":1884:2213   */\n    tag_15:\n        /* \"#utility.yul\":1943:1949   */\n      0x00\n        /* \"#utility.yul\":1992:1994   */\n      0x20\n        /* \"#utility.yul\":1980:1989   */\n      dup3\n        /* \"#utility.yul\":1971:1978   */\n      dup5\n        /* \"#utility.yul\":1967:1990   */\n      sub\n        /* \"#utility.yul\":1963:1995   */\n      slt\n        /* \"#utility.yul\":1960:2079   */\n      iszero\n      tag_105\n      jumpi\n        /* \"#utility.yul\":1998:2077   */\n      tag_106\n      tag_53\n      jump\t// in\n    tag_106:\n        /* \"#utility.yul\":1960:2079   */\n    tag_105:\n        /* \"#utility.yul\":2118:2119   */\n      0x00\n        /* \"#utility.yul\":2143:2196   */\n      tag_107\n        /* \"#utility.yul\":2188:2195   */\n      dup5\n        /* \"#utility.yul\":2179:2185   */\n      dup3\n        /* \"#utility.yul\":2168:2177   */\n      dup6\n        /* \"#utility.yul\":2164:2186   */\n      add\n        /* \"#utility.yul\":2143:2196   */\n      tag_62\n      jump\t// in\n    tag_107:\n        /* \"#utility.yul\":2133:2196   */\n      swap2\n      pop\n        /* \"#utility.yul\":2089:2206   */\n      pop\n        /* \"#utility.yul\":1884:2213   */\n      swap3\n      swap2\n      pop\n      pop\n      jump\t// out\n        /* \"#utility.yul\":2219:2279   */\n    tag_63:\n        /* \"#utility.yul\":2247:2250   */\n      0x00\n        /* \"#utility.yul\":2268:2273   */\n      dup2\n        /* \"#utility.yul\":2261:2273   */\n      swap1\n      pop\n        /* \"#utility.yul\":2219:2279   */\n      swap2\n      swap1\n      pop\n      jump\t// out\n        /* \"#utility.yul\":2285:2427   */\n    tag_64:\n        /* \"#utility.yul\":2335:2344   */\n      0x00\n        /* \"#utility.yul\":2368:2421   */\n      tag_110\n        /* \"#utility.yul\":2386:2420   */\n      tag_111\n        /* \"#utility.yul\":2395:2419   */\n      tag_112\n        /* \"#utility.yul\":2413:2418   */\n      dup5\n        /* \"#utility.yul\":2395:2419   */\n      tag_55\n      jump\t// in\n    tag_112:\n        /* \"#utility.yul\":2386:2420   */\n      tag_63\n      jump\t// in\n    tag_111:\n        /* \"#utility.yul\":2368:2421   */\n      tag_55\n      jump\t// in\n    tag_110:\n        /* \"#utility.yul\":2355:2421   */\n      swap1\n      pop\n        /* \"#utility.yul\":2285:2427   */\n      swap2\n      swap1\n      pop\n      jump\t// out\n        /* \"#utility.yul\":2433:2559   */\n    tag_65:\n        /* \"#utility.yul\":2483:2492   */\n      0x00\n        /* \"#utility.yul\":2516:2553   */\n      tag_114\n        /* \"#utility.yul\":2547:2552   */\n      dup3\n        /* \"#utility.yul\":2516:2553   */\n      tag_64\n      jump\t// in\n    tag_114:\n        /* \"#utility.yul\":2503:2553   */\n      swap1\n      pop\n        /* \"#utility.yul\":2433:2559   */\n      swap2\n      swap1\n      pop\n      jump\t// out\n        /* \"#utility.yul\":2565:2704   */\n    tag_66:\n        /* \"#utility.yul\":2628:2637   */\n      0x00\n        /* \"#utility.yul\":2661:2698   */\n      tag_116\n        /* \"#utility.yul\":2692:2697   */\n      dup3\n        /* \"#utility.yul\":2661:2698   */\n      tag_65\n      jump\t// in\n    tag_116:\n        /* \"#utility.yul\":2648:2698   */\n      swap1\n      pop\n        /* \"#utility.yul\":2565:2704   */\n      swap2\n      swap1\n      pop\n      jump\t// out\n        /* \"#utility.yul\":2710:2867   */\n    tag_67:\n        /* \"#utility.yul\":2810:2860   */\n      tag_118\n        /* \"#utility.yul\":2854:2859   */\n      dup2\n        /* \"#utility.yul\":2810:2860   */\n      tag_66\n      jump\t// in\n    tag_118:\n        /* \"#utility.yul\":2805:2808   */\n      dup3\n        /* \"#utility.yul\":2798:2861   */\n      mstore\n        /* \"#utility.yul\":2710:2867   */\n      pop\n      pop\n      jump\t// out\n        /* \"#utility.yul\":2873:3121   */\n    tag_20:\n        /* \"#utility.yul\":2979:2983   */\n      0x00\n        /* \"#utility.yul\":3017:3019   */\n      0x20\n        /* \"#utility.yul\":3006:3015   */\n      dup3\n        /* \"#utility.yul\":3002:3020   */\n      add\n        /* \"#utility.yul\":2994:3020   */\n      swap1\n      pop\n        /* \"#utility.yul\":3030:3114   */\n      tag_120\n        /* \"#utility.yul\":3111:3112   */\n      0x00\n        /* \"#utility.yul\":3100:3109   */\n      dup4\n        /* \"#utility.yul\":3096:3113   */\n      add\n        /* \"#utility.yul\":3087:3093   */\n      dup5\n        /* \"#utility.yul\":3030:3114   */\n      tag_67\n      jump\t// in\n    tag_120:\n        /* \"#utility.yul\":2873:3121   */\n      swap3\n      swap2\n      pop\n      pop\n      jump\t// out\n        /* \"#utility.yul\":3127:3296   */\n    tag_68:\n        /* \"#utility.yul\":3211:3222   */\n      0x00\n        /* \"#utility.yul\":3245:3251   */\n      dup3\n        /* \"#utility.yul\":3240:3243   */\n      dup3\n        /* \"#utility.yul\":3233:3252   */\n      mstore\n        /* \"#utility.yul\":3285:3289   */\n      0x20\n        /* \"#utility.yul\":3280:3283   */\n      dup3\n        /* \"#utility.yul\":3276:3290   */\n      add\n        /* \"#utility.yul\":3261:3290   */\n      swap1\n      pop\n        /* \"#utility.yul\":3127:3296   */\n      swap3\n      swap2\n      pop\n      pop\n      jump\t// out\n        /* \"#utility.yul\":3302:3525   */\n    tag_69:\n        /* \"#utility.yul\":3442:3476   */\n      0x5769746864726177616c206d7573742062652067726561746572207468616e20\n        /* \"#utility.yul\":3438:3439   */\n      0x00\n        /* \"#utility.yul\":3430:3436   */\n      dup3\n        /* \"#utility.yul\":3426:3440   */\n      add\n        /* \"#utility.yul\":3419:3477   */\n      mstore\n        /* \"#utility.yul\":3511:3517   */\n      0x7a65726f00000000000000000000000000000000000000000000000000000000\n        /* \"#utility.yul\":3506:3508   */\n      0x20\n        /* \"#utility.yul\":3498:3504   */\n      dup3\n        /* \"#utility.yul\":3494:3509   */\n      add\n        /* \"#utility.yul\":3487:3518   */\n      mstore\n        /* \"#utility.yul\":3302:3525   */\n      pop\n      jump\t// out\n        /* \"#utility.yul\":3531:3897   */\n    tag_70:\n        /* \"#utility.yul\":3673:3676   */\n      0x00\n        /* \"#utility.yul\":3694:3761   */\n      tag_124\n        /* \"#utility.yul\":3758:3760   */\n      0x24\n        /* \"#utility.yul\":3753:3756   */\n      dup4\n        /* \"#utility.yul\":3694:3761   */\n      tag_68\n      jump\t// in\n    tag_124:\n        /* \"#utility.yul\":3687:3761   */\n      swap2\n      pop\n        /* \"#utility.yul\":3770:3863   */\n      tag_125\n        /* \"#utility.yul\":3859:3862   */\n      dup3\n        /* \"#utility.yul\":3770:3863   */\n      tag_69\n      jump\t// in\n    tag_125:\n        /* \"#utility.yul\":3888:3890   */\n      0x40\n        /* \"#utility.yul\":3883:3886   */\n      dup3\n        /* \"#utility.yul\":3879:3891   */\n      add\n        /* \"#utility.yul\":3872:3891   */\n      swap1\n      pop\n        /* \"#utility.yul\":3531:3897   */\n      swap2\n      swap1\n      pop\n      jump\t// out\n        /* \"#utility.yul\":3903:4322   */\n    tag_27:\n        /* \"#utility.yul\":4069:4073   */\n      0x00\n        /* \"#utility.yul\":4107:4109   */\n      0x20\n        /* \"#utility.yul\":4096:4105   */\n      dup3\n        /* \"#utility.yul\":4092:4110   */\n      add\n        /* \"#utility.yul\":4084:4110   */\n      swap1\n      pop\n        /* \"#utility.yul\":4156:4165   */\n      dup2\n        /* \"#utility.yul\":4150:4154   */\n      dup2\n        /* \"#utility.yul\":4146:4166   */\n      sub\n        /* \"#utility.yul\":4142:4143   */\n      0x00\n        /* \"#utility.yul\":4131:4140   */\n      dup4\n        /* \"#utility.yul\":4127:4144   */\n      add\n        /* \"#utility.yul\":4120:4167   */\n      mstore\n        /* \"#utility.yul\":4184:4315   */\n      tag_127\n        /* \"#utility.yul\":4310:4314   */\n      dup2\n        /* \"#utility.yul\":4184:4315   */\n      tag_70\n      jump\t// in\n    tag_127:\n        /* \"#utility.yul\":4176:4315   */\n      swap1\n      pop\n        /* \"#utility.yul\":3903:4322   */\n      swap2\n      swap1\n      pop\n      jump\t// out\n        /* \"#utility.yul\":4328:4508   */\n    tag_71:\n        /* \"#utility.yul\":4376:4453   */\n      0x4e487b7100000000000000000000000000000000000000000000000000000000\n        /* \"#utility.yul\":4373:4374   */\n      0x00\n        /* \"#utility.yul\":4366:4454   */\n      mstore\n        /* \"#utility.yul\":4473:4477   */\n      0x11\n        /* \"#utility.yul\":4470:4471   */\n      0x04\n        /* \"#utility.yul\":4463:4478   */\n      mstore\n        /* \"#utility.yul\":4497:4501   */\n      0x24\n        /* \"#utility.yul\":4494:4495   */\n      0x00\n        /* \"#utility.yul\":4487:4502   */\n      revert\n        /* \"#utility.yul\":4514:4708   */\n    tag_30:\n        /* \"#utility.yul\":4554:4558   */\n      0x00\n        /* \"#utility.yul\":4574:4594   */\n      tag_130\n        /* \"#utility.yul\":4592:4593   */\n      dup3\n        /* \"#utility.yul\":4574:4594   */\n      tag_59\n      jump\t// in\n    tag_130:\n        /* \"#utility.yul\":4569:4594   */\n      swap2\n      pop\n        /* \"#utility.yul\":4608:4628   */\n      tag_131\n        /* \"#utility.yul\":4626:4627   */\n      dup4\n        /* \"#utility.yul\":4608:4628   */\n      tag_59\n      jump\t// in\n    tag_131:\n        /* \"#utility.yul\":4603:4628   */\n      swap3\n      pop\n        /* \"#utility.yul\":4652:4653   */\n      dup3\n        /* \"#utility.yul\":4649:4650   */\n      dup3\n        /* \"#utility.yul\":4645:4654   */\n      sub\n        /* \"#utility.yul\":4637:4654   */\n      swap1\n      pop\n        /* \"#utility.yul\":4676:4677   */\n      dup2\n        /* \"#utility.yul\":4670:4674   */\n      dup2\n        /* \"#utility.yul\":4667:4678   */\n      gt\n        /* \"#utility.yul\":4664:4701   */\n      iszero\n      tag_132\n      jumpi\n        /* \"#utility.yul\":4681:4699   */\n      tag_133\n      tag_71\n      jump\t// in\n    tag_133:\n        /* \"#utility.yul\":4664:4701   */\n    tag_132:\n        /* \"#utility.yul\":4514:4708   */\n      swap3\n      swap2\n      pop\n      pop\n      jump\t// out\n        /* \"#utility.yul\":4714:4832   */\n    tag_72:\n        /* \"#utility.yul\":4801:4825   */\n      tag_135\n        /* \"#utility.yul\":4819:4824   */\n      dup2\n        /* \"#utility.yul\":4801:4825   */\n      tag_56\n      jump\t// in\n    tag_135:\n        /* \"#utility.yul\":4796:4799   */\n      dup3\n        /* \"#utility.yul\":4789:4826   */\n      mstore\n        /* \"#utility.yul\":4714:4832   */\n      pop\n      pop\n      jump\t// out\n        /* \"#utility.yul\":4838:5170   */\n    tag_32:\n        /* \"#utility.yul\":4959:4963   */\n      0x00\n        /* \"#utility.yul\":4997:4999   */\n      0x40\n        /* \"#utility.yul\":4986:4995   */\n      dup3\n        /* \"#utility.yul\":4982:5000   */\n      add\n        /* \"#utility.yul\":4974:5000   */\n      swap1\n      pop\n        /* \"#utility.yul\":5010:5081   */\n      tag_137\n        /* \"#utility.yul\":5078:5079   */\n      0x00\n        /* \"#utility.yul\":5067:5076   */\n      dup4\n        /* \"#utility.yul\":5063:5080   */\n      add\n        /* \"#utility.yul\":5054:5060   */\n      dup6\n        /* \"#utility.yul\":5010:5081   */\n      tag_72\n      jump\t// in\n    tag_137:\n        /* \"#utility.yul\":5091:5163   */\n      tag_138\n        /* \"#utility.yul\":5159:5161   */\n      0x20\n        /* \"#utility.yul\":5148:5157   */\n      dup4\n        /* \"#utility.yul\":5144:5162   */\n      add\n        /* \"#utility.yul\":5135:5141   */\n      dup5\n        /* \"#utility.yul\":5091:5163   */\n      tag_60\n      jump\t// in\n    tag_138:\n        /* \"#utility.yul\":4838:5170   */\n      swap4\n      swap3\n      pop\n      pop\n      pop\n      jump\t// out\n        /* \"#utility.yul\":5176:5266   */\n    tag_73:\n        /* \"#utility.yul\":5210:5217   */\n      0x00\n        /* \"#utility.yul\":5253:5258   */\n      dup2\n        /* \"#utility.yul\":5246:5259   */\n      iszero\n        /* \"#utility.yul\":5239:5260   */\n      iszero\n        /* \"#utility.yul\":5228:5260   */\n      swap1\n      pop\n        /* \"#utility.yul\":5176:5266   */\n      swap2\n      swap1\n      pop\n      jump\t// out\n        /* \"#utility.yul\":5272:5388   */\n    tag_74:\n        /* \"#utility.yul\":5342:5363   */\n      tag_141\n        /* \"#utility.yul\":5357:5362   */\n      dup2\n        /* \"#utility.yul\":5342:5363   */\n      tag_73\n      jump\t// in\n    tag_141:\n        /* \"#utility.yul\":5335:5340   */\n      dup2\n        /* \"#utility.yul\":5332:5364   */\n      eq\n        /* \"#utility.yul\":5322:5382   */\n      tag_142\n      jumpi\n        /* \"#utility.yul\":5378:5379   */\n      0x00\n        /* \"#utility.yul\":5375:5376   */\n      dup1\n        /* \"#utility.yul\":5368:5380   */\n      revert\n        /* \"#utility.yul\":5322:5382   */\n    tag_142:\n        /* \"#utility.yul\":5272:5388   */\n      pop\n      jump\t// out\n        /* \"#utility.yul\":5394:5531   */\n    tag_75:\n        /* \"#utility.yul\":5448:5453   */\n      0x00\n        /* \"#utility.yul\":5479:5485   */\n      dup2\n        /* \"#utility.yul\":5473:5486   */\n      mload\n        /* \"#utility.yul\":5464:5486   */\n      swap1\n      pop\n        /* \"#utility.yul\":5495:5525   */\n      tag_144\n        /* \"#utility.yul\":5519:5524   */\n      dup2\n        /* \"#utility.yul\":5495:5525   */\n      tag_74\n      jump\t// in\n    tag_144:\n        /* \"#utility.yul\":5394:5531   */\n      swap3\n      swap2\n      pop\n      pop\n      jump\t// out\n        /* \"#utility.yul\":5537:5882   */\n    tag_36:\n        /* \"#utility.yul\":5604:5610   */\n      0x00\n        /* \"#utility.yul\":5653:5655   */\n      0x20\n        /* \"#utility.yul\":5641:5650   */\n      dup3\n        /* \"#utility.yul\":5632:5639   */\n      dup5\n        /* \"#utility.yul\":5628:5651   */\n      sub\n        /* \"#utility.yul\":5624:5656   */\n      slt\n        /* \"#utility.yul\":5621:5740   */\n      iszero\n      tag_146\n      jumpi\n        /* \"#utility.yul\":5659:5738   */\n      tag_147\n      tag_53\n      jump\t// in\n    tag_147:\n        /* \"#utility.yul\":5621:5740   */\n    tag_146:\n        /* \"#utility.yul\":5779:5780   */\n      0x00\n        /* \"#utility.yul\":5804:5865   */\n      tag_148\n        /* \"#utility.yul\":5857:5864   */\n      dup5\n        /* \"#utility.yul\":5848:5854   */\n      dup3\n        /* \"#utility.yul\":5837:5846   */\n      dup6\n        /* \"#utility.yul\":5833:5855   */\n      add\n        /* \"#utility.yul\":5804:5865   */\n      tag_75\n      jump\t// in\n    tag_148:\n        /* \"#utility.yul\":5794:5865   */\n      swap2\n      pop\n        /* \"#utility.yul\":5750:5875   */\n      pop\n        /* \"#utility.yul\":5537:5882   */\n      swap3\n      swap2\n      pop\n      pop\n      jump\t// out\n        /* \"#utility.yul\":5888:6108   */\n    tag_76:\n        /* \"#utility.yul\":6028:6062   */\n      0x4465706f736974206d7573742062652067726561746572207468616e207a6572\n        /* \"#utility.yul\":6024:6025   */\n      0x00\n        /* \"#utility.yul\":6016:6022   */\n      dup3\n        /* \"#utility.yul\":6012:6026   */\n      add\n        /* \"#utility.yul\":6005:6063   */\n      mstore\n        /* \"#utility.yul\":6097:6100   */\n      0x6f00000000000000000000000000000000000000000000000000000000000000\n        /* \"#utility.yul\":6092:6094   */\n      0x20\n        /* \"#utility.yul\":6084:6090   */\n      dup3\n        /* \"#utility.yul\":6080:6095   */\n      add\n        /* \"#utility.yul\":6073:6101   */\n      mstore\n        /* \"#utility.yul\":5888:6108   */\n      pop\n      jump\t// out\n        /* \"#utility.yul\":6114:6480   */\n    tag_77:\n        /* \"#utility.yul\":6256:6259   */\n      0x00\n        /* \"#utility.yul\":6277:6344   */\n      tag_151\n        /* \"#utility.yul\":6341:6343   */\n      0x21\n        /* \"#utility.yul\":6336:6339   */\n      dup4\n        /* \"#utility.yul\":6277:6344   */\n      tag_68\n      jump\t// in\n    tag_151:\n        /* \"#utility.yul\":6270:6344   */\n      swap2\n      pop\n        /* \"#utility.yul\":6353:6446   */\n      tag_152\n        /* \"#utility.yul\":6442:6445   */\n      dup3\n        /* \"#utility.yul\":6353:6446   */\n      tag_76\n      jump\t// in\n    tag_152:\n        /* \"#utility.yul\":6471:6473   */\n      0x40\n        /* \"#utility.yul\":6466:6469   */\n      dup3\n        /* \"#utility.yul\":6462:6474   */\n      add\n        /* \"#utility.yul\":6455:6474   */\n      swap1\n      pop\n        /* \"#utility.yul\":6114:6480   */\n      swap2\n      swap1\n      pop\n      jump\t// out\n        /* \"#utility.yul\":6486:6905   */\n    tag_42:\n        /* \"#utility.yul\":6652:6656   */\n      0x00\n        /* \"#utility.yul\":6690:6692   */\n      0x20\n        /* \"#utility.yul\":6679:6688   */\n      dup3\n        /* \"#utility.yul\":6675:6693   */\n      add\n        /* \"#utility.yul\":6667:6693   */\n      swap1\n      pop\n        /* \"#utility.yul\":6739:6748   */\n      dup2\n        /* \"#utility.yul\":6733:6737   */\n      dup2\n        /* \"#utility.yul\":6729:6749   */\n      sub\n        /* \"#utility.yul\":6725:6726   */\n      0x00\n        /* \"#utility.yul\":6714:6723   */\n      dup4\n        /* \"#utility.yul\":6710:6727   */\n      add\n        /* \"#utility.yul\":6703:6750   */\n      mstore\n        /* \"#utility.yul\":6767:6898   */\n      tag_154\n        /* \"#utility.yul\":6893:6897   */\n      dup2\n        /* \"#utility.yul\":6767:6898   */\n      tag_77\n      jump\t// in\n    tag_154:\n        /* \"#utility.yul\":6759:6898   */\n      swap1\n      pop\n        /* \"#utility.yul\":6486:6905   */\n      swap2\n      swap1\n      pop\n      jump\t// out\n        /* \"#utility.yul\":6911:7353   */\n    tag_44:\n        /* \"#utility.yul\":7060:7064   */\n      0x00\n        /* \"#utility.yul\":7098:7100   */\n      0x60\n        /* \"#utility.yul\":7087:7096   */\n      dup3\n        /* \"#utility.yul\":7083:7101   */\n      add\n        /* \"#utility.yul\":7075:7101   */\n      swap1\n      pop\n        /* \"#utility.yul\":7111:7182   */\n      tag_156\n        /* \"#utility.yul\":7179:7180   */\n      0x00\n        /* \"#utility.yul\":7168:7177   */\n      dup4\n        /* \"#utility.yul\":7164:7181   */\n      add\n        /* \"#utility.yul\":7155:7161   */\n      dup7\n        /* \"#utility.yul\":7111:7182   */\n      tag_72\n      jump\t// in\n    tag_156:\n        /* \"#utility.yul\":7192:7264   */\n      tag_157\n        /* \"#utility.yul\":7260:7262   */\n      0x20\n        /* \"#utility.yul\":7249:7258   */\n      dup4\n        /* \"#utility.yul\":7245:7263   */\n      add\n        /* \"#utility.yul\":7236:7242   */\n      dup6\n        /* \"#utility.yul\":7192:7264   */\n      tag_72\n      jump\t// in\n    tag_157:\n        /* \"#utility.yul\":7274:7346   */\n      tag_158\n        /* \"#utility.yul\":7342:7344   */\n      0x40\n        /* \"#utility.yul\":7331:7340   */\n      dup4\n        /* \"#utility.yul\":7327:7345   */\n      add\n        /* \"#utility.yul\":7318:7324   */\n      dup5\n        /* \"#utility.yul\":7274:7346   */\n      tag_60\n      jump\t// in\n    tag_158:\n        /* \"#utility.yul\":6911:7353   */\n      swap5\n      swap4\n      pop\n      pop\n      pop\n      pop\n      jump\t// out\n        /* \"#utility.yul\":7359:7550   */\n    tag_50:\n        /* \"#utility.yul\":7399:7402   */\n      0x00\n        /* \"#utility.yul\":7418:7438   */\n      tag_160\n        /* \"#utility.yul\":7436:7437   */\n      dup3\n        /* \"#utility.yul\":7418:7438   */\n      tag_59\n      jump\t// in\n    tag_160:\n        /* \"#utility.yul\":7413:7438   */\n      swap2\n      pop\n        /* \"#utility.yul\":7452:7472   */\n      tag_161\n        /* \"#utility.yul\":7470:7471   */\n      dup4\n        /* \"#utility.yul\":7452:7472   */\n      tag_59\n      jump\t// in\n    tag_161:\n        /* \"#utility.yul\":7447:7472   */\n      swap3\n      pop\n        /* \"#utility.yul\":7495:7496   */\n      dup3\n        /* \"#utility.yul\":7492:7493   */\n      dup3\n        /* \"#utility.yul\":7488:7497   */\n      add\n        /* \"#utility.yul\":7481:7497   */\n      swap1\n      pop\n        /* \"#utility.yul\":7516:7519   */\n      dup1\n        /* \"#utility.yul\":7513:7514   */\n      dup3\n        /* \"#utility.yul\":7510:7520   */\n      gt\n        /* \"#utility.yul\":7507:7543   */\n      iszero\n      tag_162\n      jumpi\n        /* \"#utility.yul\":7523:7541   */\n      tag_163\n      tag_71\n      jump\t// in\n    tag_163:\n        /* \"#utility.yul\":7507:7543   */\n    tag_162:\n        /* \"#utility.yul\":7359:7550   */\n      swap3\n      swap2\n      pop\n      pop\n      jump\t// out\n\n    auxdata: 0xa2646970667358221220520dd40ea64b11787d6eec005e0db5c3cee09a9e19b3370583878cc1b7bed7d964736f6c634300081a0033\n}\n",
				"bytecode": {
					"linkReferences": {},
					"object": "60a060405234801561000f575f80fd5b50604051610b49380380610b4983398181016040528101906100319190610137565b5f73ffffffffffffffffffffffffffffffffffffffff168173ffffffffffffffffffffffffffffffffffffffff160361009f576040517f161eb542000000000000000000000000000000000000000000000000000000008152600401610096906101bc565b60405180910390fd5b8073ffffffffffffffffffffffffffffffffffffffff1660808173ffffffffffffffffffffffffffffffffffffffff1681525050506101da565b5f80fd5b5f73ffffffffffffffffffffffffffffffffffffffff82169050919050565b5f610106826100dd565b9050919050565b610116816100fc565b8114610120575f80fd5b50565b5f815190506101318161010d565b92915050565b5f6020828403121561014c5761014b6100d9565b5b5f61015984828501610123565b91505092915050565b5f82825260208201905092915050565b7f496e76616c6964205553444320616464726573730000000000000000000000005f82015250565b5f6101a6601483610162565b91506101b182610172565b602082019050919050565b5f6020820190508181035f8301526101d38161019a565b9050919050565b6080516109496102005f395f81816101f501528181610321015261038801526109495ff3fe608060405234801561000f575f80fd5b506004361061004a575f3560e01c806327e235e31461004e5780632e1a7d4d1461007e5780633e413bee1461009a578063b6b55f25146100b8575b5f80fd5b61006860048036038101906100639190610564565b6100d4565b60405161007591906105a7565b60405180910390f35b610098600480360381019061009391906105ea565b6100e8565b005b6100a261031f565b6040516100af9190610670565b60405180910390f35b6100d260048036038101906100cd91906105ea565b610343565b005b5f602052805f5260405f205f915090505481565b5f811161012a576040517fb132ad4a00000000000000000000000000000000000000000000000000000000815260040161012190610709565b60405180910390fd5b5f803373ffffffffffffffffffffffffffffffffffffffff1673ffffffffffffffffffffffffffffffffffffffff1681526020019081526020015f20548111156101a0576040517ff4d678b800000000000000000000000000000000000000000000000000000000815260040160405180910390fd5b805f803373ffffffffffffffffffffffffffffffffffffffff1673ffffffffffffffffffffffffffffffffffffffff1681526020019081526020015f205f8282546101eb9190610754565b925050819055505f7f000000000000000000000000000000000000000000000000000000000000000073ffffffffffffffffffffffffffffffffffffffff1663a9059cbb33846040518363ffffffff1660e01b815260040161024e929190610796565b6020604051808303815f875af115801561026a573d5f803e3d5ffd5b505050506040513d601f19601f8201168201806040525081019061028e91906107f2565b90505f1515811515036102cd576040517f90b8ec1800000000000000000000000000000000000000000000000000000000815260040160405180910390fd5b3373ffffffffffffffffffffffffffffffffffffffff167f7084f5476618d8e60b11ef0d7d3f06914655adb8793e28ff7f018d4c76d505d58360405161031391906105a7565b60405180910390a25050565b7f000000000000000000000000000000000000000000000000000000000000000081565b5f8111610385576040517fb132ad4a00000000000000000000000000000000000000000000000000000000815260040161037c9061088d565b60405180910390fd5b5f7f000000000000000000000000000000000000000000000000000000000000000073ffffffffffffffffffffffffffffffffffffffff166323b872dd3330856040518463ffffffff1660e01b81526004016103e3939291906108ab565b6020604051808303815f875af11580156103ff573d5f803e3d5ffd5b505050506040513d601f19601f8201168201806040525081019061042391906107f2565b90505f151581151503610462576040517f90b8ec1800000000000000000000000000000000000000000000000000000000815260040160405180910390fd5b815f803373ffffffffffffffffffffffffffffffffffffffff1673ffffffffffffffffffffffffffffffffffffffff1681526020019081526020015f205f8282546104ad91906108e0565b925050819055503373ffffffffffffffffffffffffffffffffffffffff167f2da466a7b24304f47e87fa2e1e5a81b9831ce54fec19055ce277ca2f39ba42c4836040516104fa91906105a7565b60405180910390a25050565b5f80fd5b5f73ffffffffffffffffffffffffffffffffffffffff82169050919050565b5f6105338261050a565b9050919050565b61054381610529565b811461054d575f80fd5b50565b5f8135905061055e8161053a565b92915050565b5f6020828403121561057957610578610506565b5b5f61058684828501610550565b91505092915050565b5f819050919050565b6105a18161058f565b82525050565b5f6020820190506105ba5f830184610598565b92915050565b6105c98161058f565b81146105d3575f80fd5b50565b5f813590506105e4816105c0565b92915050565b5f602082840312156105ff576105fe610506565b5b5f61060c848285016105d6565b91505092915050565b5f819050919050565b5f61063861063361062e8461050a565b610615565b61050a565b9050919050565b5f6106498261061e565b9050919050565b5f61065a8261063f565b9050919050565b61066a81610650565b82525050565b5f6020820190506106835f830184610661565b92915050565b5f82825260208201905092915050565b7f5769746864726177616c206d7573742062652067726561746572207468616e205f8201527f7a65726f00000000000000000000000000000000000000000000000000000000602082015250565b5f6106f3602483610689565b91506106fe82610699565b604082019050919050565b5f6020820190508181035f830152610720816106e7565b9050919050565b7f4e487b71000000000000000000000000000000000000000000000000000000005f52601160045260245ffd5b5f61075e8261058f565b91506107698361058f565b925082820390508181111561078157610780610727565b5b92915050565b61079081610529565b82525050565b5f6040820190506107a95f830185610787565b6107b66020830184610598565b9392505050565b5f8115159050919050565b6107d1816107bd565b81146107db575f80fd5b50565b5f815190506107ec816107c8565b92915050565b5f6020828403121561080757610806610506565b5b5f610814848285016107de565b91505092915050565b7f4465706f736974206d7573742062652067726561746572207468616e207a65725f8201527f6f00000000000000000000000000000000000000000000000000000000000000602082015250565b5f610877602183610689565b91506108828261081d565b604082019050919050565b5f6020820190508181035f8301526108a48161086b565b9050919050565b5f6060820190506108be5f830186610787565b6108cb6020830185610787565b6108d86040830184610598565b949350505050565b5f6108ea8261058f565b91506108f58361058f565b925082820190508082111561090d5761090c610727565b5b9291505056fea2646970667358221220520dd40ea64b11787d6eec005e0db5c3cee09a9e19b3370583878cc1b7bed7d964736f6c634300081a0033",
					"opcodes": "PUSH1 0xA0 PUSH1 0x40 MSTORE CALLVALUE DUP1 ISZERO PUSH2 0xF JUMPI PUSH0 DUP1 REVERT JUMPDEST POP PUSH1 0x40 MLOAD PUSH2 0xB49 CODESIZE SUB DUP1 PUSH2 0xB49 DUP4 CODECOPY DUP2 DUP2 ADD PUSH1 0x40 MSTORE DUP2 ADD SWAP1 PUSH2 0x31 SWAP2 SWAP1 PUSH2 0x137 JUMP JUMPDEST PUSH0 PUSH20 0xFFFFFFFFFFFFFFFFFFFFFFFFFFFFFFFFFFFFFFFF AND DUP2 PUSH20 0xFFFFFFFFFFFFFFFFFFFFFFFFFFFFFFFFFFFFFFFF AND SUB PUSH2 0x9F JUMPI PUSH1 0x40 MLOAD PUSH32 0x161EB54200000000000000000000000000000000000000000000000000000000 DUP2 MSTORE PUSH1 0x4 ADD PUSH2 0x96 SWAP1 PUSH2 0x1BC JUMP JUMPDEST PUSH1 0x40 MLOAD DUP1 SWAP2 SUB SWAP1 REVERT JUMPDEST DUP1 PUSH20 0xFFFFFFFFFFFFFFFFFFFFFFFFFFFFFFFFFFFFFFFF AND PUSH1 0x80 DUP2 PUSH20 0xFFFFFFFFFFFFFFFFFFFFFFFFFFFFFFFFFFFFFFFF AND DUP2 MSTORE POP POP POP PUSH2 0x1DA JUMP JUMPDEST PUSH0 DUP1 REVERT JUMPDEST PUSH0 PUSH20 0xFFFFFFFFFFFFFFFFFFFFFFFFFFFFFFFFFFFFFFFF DUP3 AND SWAP1 POP SWAP2 SWAP1 POP JUMP JUMPDEST PUSH0 PUSH2 0x106 DUP3 PUSH2 0xDD JUMP JUMPDEST SWAP1 POP SWAP2 SWAP1 POP JUMP JUMPDEST PUSH2 0x116 DUP2 PUSH2 0xFC JUMP JUMPDEST DUP2 EQ PUSH2 0x120 JUMPI PUSH0 DUP1 REVERT JUMPDEST POP JUMP JUMPDEST PUSH0 DUP2 MLOAD SWAP1 POP PUSH2 0x131 DUP2 PUSH2 0x10D JUMP JUMPDEST SWAP3 SWAP2 POP POP JUMP JUMPDEST PUSH0 PUSH1 0x20 DUP3 DUP5 SUB SLT ISZERO PUSH2 0x14C JUMPI PUSH2 0x14B PUSH2 0xD9 JUMP JUMPDEST JUMPDEST PUSH0 PUSH2 0x159 DUP5 DUP3 DUP6 ADD PUSH2 0x123 JUMP JUMPDEST SWAP2 POP POP SWAP3 SWAP2 POP POP JUMP JUMPDEST PUSH0 DUP3 DUP3 MSTORE PUSH1 0x20 DUP3 ADD SWAP1 POP SWAP3 SWAP2 POP POP JUMP JUMPDEST PUSH32 0x496E76616C696420555344432061646472657373000000000000000000000000 PUSH0 DUP3 ADD MSTORE POP JUMP JUMPDEST PUSH0 PUSH2 0x1A6 PUSH1 0x14 DUP4 PUSH2 0x162 JUMP JUMPDEST SWAP2 POP PUSH2 0x1B1 DUP3 PUSH2 0x172 JUMP JUMPDEST PUSH1 0x20 DUP3 ADD SWAP1 POP SWAP2 SWAP1 POP JUMP JUMPDEST PUSH0 PUSH1 0x20 DUP3 ADD SWAP1 POP DUP2 DUP2 SUB PUSH0 DUP4 ADD MSTORE PUSH2 0x1D3 DUP2 PUSH2 0x19A JUMP JUMPDEST SWAP1 POP SWAP2 SWAP1 POP JUMP JUMPDEST PUSH1 0x80 MLOAD PUSH2 0x949 PUSH2 0x200 PUSH0 CODECOPY PUSH0 DUP2 DUP2 PUSH2 0x1F5 ADD MSTORE DUP2 DUP2 PUSH2 0x321 ADD MSTORE PUSH2 0x388 ADD MSTORE PUSH2 0x949 PUSH0 RETURN INVALID PUSH1 0x80 PUSH1 0x40 MSTORE CALLVALUE DUP1 ISZERO PUSH2 0xF JUMPI PUSH0 DUP1 REVERT JUMPDEST POP PUSH1 0x4 CALLDATASIZE LT PUSH2 0x4A JUMPI PUSH0 CALLDATALOAD PUSH1 0xE0 SHR DUP1 PUSH4 0x27E235E3 EQ PUSH2 0x4E JUMPI DUP1 PUSH4 0x2E1A7D4D EQ PUSH2 0x7E JUMPI DUP1 PUSH4 0x3E413BEE EQ PUSH2 0x9A JUMPI DUP1 PUSH4 0xB6B55F25 EQ PUSH2 0xB8 JUMPI JUMPDEST PUSH0 DUP1 REVERT JUMPDEST PUSH2 0x68 PUSH1 0x4 DUP1 CALLDATASIZE SUB DUP2 ADD SWAP1 PUSH2 0x63 SWAP2 SWAP1 PUSH2 0x564 JUMP JUMPDEST PUSH2 0xD4 JUMP JUMPDEST PUSH1 0x40 MLOAD PUSH2 0x75 SWAP2 SWAP1 PUSH2 0x5A7 JUMP JUMPDEST PUSH1 0x40 MLOAD DUP1 SWAP2 SUB SWAP1 RETURN JUMPDEST PUSH2 0x98 PUSH1 0x4 DUP1 CALLDATASIZE SUB DUP2 ADD SWAP1 PUSH2 0x93 SWAP2 SWAP1 PUSH2 0x5EA JUMP JUMPDEST PUSH2 0xE8 JUMP JUMPDEST STOP JUMPDEST PUSH2 0xA2 PUSH2 0x31F JUMP JUMPDEST PUSH1 0x40 MLOAD PUSH2 0xAF SWAP2 SWAP1 PUSH2 0x670 JUMP JUMPDEST PUSH1 0x40 MLOAD DUP1 SWAP2 SUB SWAP1 RETURN JUMPDEST PUSH2 0xD2 PUSH1 0x4 DUP1 CALLDATASIZE SUB DUP2 ADD SWAP1 PUSH2 0xCD SWAP2 SWAP1 PUSH2 0x5EA JUMP JUMPDEST PUSH2 0x343 JUMP JUMPDEST STOP JUMPDEST PUSH0 PUSH1 0x20 MSTORE DUP1 PUSH0 MSTORE PUSH1 0x40 PUSH0 KECCAK256 PUSH0 SWAP2 POP SWAP1 POP SLOAD DUP2 JUMP JUMPDEST PUSH0 DUP2 GT PUSH2 0x12A JUMPI PUSH1 0x40 MLOAD PUSH32 0xB132AD4A00000000000000000000000000000000000000000000000000000000 DUP2 MSTORE PUSH1 0x4 ADD PUSH2 0x121 SWAP1 PUSH2 0x709 JUMP JUMPDEST PUSH1 0x40 MLOAD DUP1 SWAP2 SUB SWAP1 REVERT JUMPDEST PUSH0 DUP1 CALLER PUSH20 0xFFFFFFFFFFFFFFFFFFFFFFFFFFFFFFFFFFFFFFFF AND PUSH20 0xFFFFFFFFFFFFFFFFFFFFFFFFFFFFFFFFFFFFFFFF AND DUP2 MSTORE PUSH1 0x20 ADD SWAP1 DUP2 MSTORE PUSH1 0x20 ADD PUSH0 KECCAK256 SLOAD DUP2 GT ISZERO PUSH2 0x1A0 JUMPI PUSH1 0x40 MLOAD PUSH32 0xF4D678B800000000000000000000000000000000000000000000000000000000 DUP2 MSTORE PUSH1 0x4 ADD PUSH1 0x40 MLOAD DUP1 SWAP2 SUB SWAP1 REVERT JUMPDEST DUP1 PUSH0 DUP1 CALLER PUSH20 0xFFFFFFFFFFFFFFFFFFFFFFFFFFFFFFFFFFFFFFFF AND PUSH20 0xFFFFFFFFFFFFFFFFFFFFFFFFFFFFFFFFFFFFFFFF AND DUP2 MSTORE PUSH1 0x20 ADD SWAP1 DUP2 MSTORE PUSH1 0x20 ADD PUSH0 KECCAK256 PUSH0 DUP3 DUP3 SLOAD PUSH2 0x1EB SWAP2 SWAP1 PUSH2 0x754 JUMP JUMPDEST SWAP3 POP POP DUP2 SWAP1 SSTORE POP PUSH0 PUSH32 0x0 PUSH20 0xFFFFFFFFFFFFFFFFFFFFFFFFFFFFFFFFFFFFFFFF AND PUSH4 0xA9059CBB CALLER DUP5 PUSH1 0x40 MLOAD DUP4 PUSH4 0xFFFFFFFF AND PUSH1 0xE0 SHL DUP2 MSTORE PUSH1 0x4 ADD PUSH2 0x24E SWAP3 SWAP2 SWAP1 PUSH2 0x796 JUMP JUMPDEST PUSH1 0x20 PUSH1 0x40 MLOAD DUP1 DUP4 SUB DUP2 PUSH0 DUP8 GAS CALL ISZERO DUP1 ISZERO PUSH2 0x26A JUMPI RETURNDATASIZE PUSH0 DUP1 RETURNDATACOPY RETURNDATASIZE PUSH0 REVERT JUMPDEST POP POP POP POP PUSH1 0x40 MLOAD RETURNDATASIZE PUSH1 0x1F NOT PUSH1 0x1F DUP3 ADD AND DUP3 ADD DUP1 PUSH1 0x40 MSTORE POP DUP2 ADD SWAP1 PUSH2 0x28E SWAP2 SWAP1 PUSH2 0x7F2 JUMP JUMPDEST SWAP1 POP PUSH0 ISZERO ISZERO DUP2 ISZERO ISZERO SUB PUSH2 0x2CD JUMPI PUSH1 0x40 MLOAD PUSH32 0x90B8EC1800000000000000000000000000000000000000000000000000000000 DUP2 MSTORE PUSH1 0x4 ADD PUSH1 0x40 MLOAD DUP1 SWAP2 SUB SWAP1 REVERT JUMPDEST CALLER PUSH20 0xFFFFFFFFFFFFFFFFFFFFFFFFFFFFFFFFFFFFFFFF AND PUSH32 0x7084F5476618D8E60B11EF0D7D3F06914655ADB8793E28FF7F018D4C76D505D5 DUP4 PUSH1 0x40 MLOAD PUSH2 0x313 SWAP2 SWAP1 PUSH2 0x5A7 JUMP JUMPDEST PUSH1 0x40 MLOAD DUP1 SWAP2 SUB SWAP1 LOG2 POP POP JUMP JUMPDEST PUSH32 0x0 DUP2 JUMP JUMPDEST PUSH0 DUP2 GT PUSH2 0x385 JUMPI PUSH1 0x40 MLOAD PUSH32 0xB132AD4A00000000000000000000000000000000000000000000000000000000 DUP2 MSTORE PUSH1 0x4 ADD PUSH2 0x37C SWAP1 PUSH2 0x88D JUMP JUMPDEST PUSH1 0x40 MLOAD DUP1 SWAP2 SUB SWAP1 REVERT JUMPDEST PUSH0 PUSH32 0x0 PUSH20 0xFFFFFFFFFFFFFFFFFFFFFFFFFFFFFFFFFFFFFFFF AND PUSH4 0x23B872DD CALLER ADDRESS DUP6 PUSH1 0x40 MLOAD DUP5 PUSH4 0xFFFFFFFF AND PUSH1 0xE0 SHL DUP2 MSTORE PUSH1 0x4 ADD PUSH2 0x3E3 SWAP4 SWAP3 SWAP2 SWAP1 PUSH2 0x8AB JUMP JUMPDEST PUSH1 0x20 PUSH1 0x40 MLOAD DUP1 DUP4 SUB DUP2 PUSH0 DUP8 GAS CALL ISZERO DUP1 ISZERO PUSH2 0x3FF JUMPI RETURNDATASIZE PUSH0 DUP1 RETURNDATACOPY RETURNDATASIZE PUSH0 REVERT JUMPDEST POP POP POP POP PUSH1 0x40 MLOAD RETURNDATASIZE PUSH1 0x1F NOT PUSH1 0x1F DUP3 ADD AND DUP3 ADD DUP1 PUSH1 0x40 MSTORE POP DUP2 ADD SWAP1 PUSH2 0x423 SWAP2 SWAP1 PUSH2 0x7F2 JUMP JUMPDEST SWAP1 POP PUSH0 ISZERO ISZERO DUP2 ISZERO ISZERO SUB PUSH2 0x462 JUMPI PUSH1 0x40 MLOAD PUSH32 0x90B8EC1800000000000000000000000000000000000000000000000000000000 DUP2 MSTORE PUSH1 0x4 ADD PUSH1 0x40 MLOAD DUP1 SWAP2 SUB SWAP1 REVERT JUMPDEST DUP2 PUSH0 DUP1 CALLER PUSH20 0xFFFFFFFFFFFFFFFFFFFFFFFFFFFFFFFFFFFFFFFF AND PUSH20 0xFFFFFFFFFFFFFFFFFFFFFFFFFFFFFFFFFFFFFFFF AND DUP2 MSTORE PUSH1 0x20 ADD SWAP1 DUP2 MSTORE PUSH1 0x20 ADD PUSH0 KECCAK256 PUSH0 DUP3 DUP3 SLOAD PUSH2 0x4AD SWAP2 SWAP1 PUSH2 0x8E0 JUMP JUMPDEST SWAP3 POP POP DUP2 SWAP1 SSTORE POP CALLER PUSH20 0xFFFFFFFFFFFFFFFFFFFFFFFFFFFFFFFFFFFFFFFF AND PUSH32 0x2DA466A7B24304F47E87FA2E1E5A81B9831CE54FEC19055CE277CA2F39BA42C4 DUP4 PUSH1 0x40 MLOAD PUSH2 0x4FA SWAP2 SWAP1 PUSH2 0x5A7 JUMP JUMPDEST PUSH1 0x40 MLOAD DUP1 SWAP2 SUB SWAP1 LOG2 POP POP JUMP JUMPDEST PUSH0 DUP1 REVERT JUMPDEST PUSH0 PUSH20 0xFFFFFFFFFFFFFFFFFFFFFFFFFFFFFFFFFFFFFFFF DUP3 AND SWAP1 POP SWAP2 SWAP1 POP JUMP JUMPDEST PUSH0 PUSH2 0x533 DUP3 PUSH2 0x50A JUMP JUMPDEST SWAP1 POP SWAP2 SWAP1 POP JUMP JUMPDEST PUSH2 0x543 DUP2 PUSH2 0x529 JUMP JUMPDEST DUP2 EQ PUSH2 0x54D JUMPI PUSH0 DUP1 REVERT JUMPDEST POP JUMP JUMPDEST PUSH0 DUP2 CALLDATALOAD SWAP1 POP PUSH2 0x55E DUP2 PUSH2 0x53A JUMP JUMPDEST SWAP3 SWAP2 POP POP JUMP JUMPDEST PUSH0 PUSH1 0x20 DUP3 DUP5 SUB SLT ISZERO PUSH2 0x579 JUMPI PUSH2 0x578 PUSH2 0x506 JUMP JUMPDEST JUMPDEST PUSH0 PUSH2 0x586 DUP5 DUP3 DUP6 ADD PUSH2 0x550 JUMP JUMPDEST SWAP2 POP POP SWAP3 SWAP2 POP POP JUMP JUMPDEST PUSH0 DUP2 SWAP1 POP SWAP2 SWAP1 POP JUMP JUMPDEST PUSH2 0x5A1 DUP2 PUSH2 0x58F JUMP JUMPDEST DUP3 MSTORE POP POP JUMP JUMPDEST PUSH0 PUSH1 0x20 DUP3 ADD SWAP1 POP PUSH2 0x5BA PUSH0 DUP4 ADD DUP5 PUSH2 0x598 JUMP JUMPDEST SWAP3 SWAP2 POP POP JUMP JUMPDEST PUSH2 0x5C9 DUP2 PUSH2 0x58F JUMP JUMPDEST DUP2 EQ PUSH2 0x5D3 JUMPI PUSH0 DUP1 REVERT JUMPDEST POP JUMP JUMPDEST PUSH0 DUP2 CALLDATALOAD SWAP1 POP PUSH2 0x5E4 DUP2 PUSH2 0x5C0 JUMP JUMPDEST SWAP3 SWAP2 POP POP JUMP JUMPDEST PUSH0 PUSH1 0x20 DUP3 DUP5 SUB SLT ISZERO PUSH2 0x5FF JUMPI PUSH2 0x5FE PUSH2 0x506 JUMP JUMPDEST JUMPDEST PUSH0 PUSH2 0x60C DUP5 DUP3 DUP6 ADD PUSH2 0x5D6 JUMP JUMPDEST SWAP2 POP POP SWAP3 SWAP2 POP POP JUMP JUMPDEST PUSH0 DUP2 SWAP1 POP SWAP2 SWAP1 POP JUMP JUMPDEST PUSH0 PUSH2 0x638 PUSH2 0x633 PUSH2 0x62E DUP5 PUSH2 0x50A JUMP JUMPDEST PUSH2 0x615 JUMP JUMPDEST PUSH2 0x50A JUMP JUMPDEST SWAP1 POP SWAP2 SWAP1 POP JUMP JUMPDEST PUSH0 PUSH2 0x649 DUP3 PUSH2 0x61E JUMP JUMPDEST SWAP1 POP SWAP2 SWAP1 POP JUMP JUMPDEST PUSH0 PUSH2 0x65A DUP3 PUSH2 0x63F JUMP JUMPDEST SWAP1 POP SWAP2 SWAP1 POP JUMP JUMPDEST PUSH2 0x66A DUP2 PUSH2 0x650 JUMP JUMPDEST DUP3 MSTORE POP POP JUMP JUMPDEST PUSH0 PUSH1 0x20 DUP3 ADD SWAP1 POP PUSH2 0x683 PUSH0 DUP4 ADD DUP5 PUSH2 0x661 JUMP JUMPDEST SWAP3 SWAP2 POP POP JUMP JUMPDEST PUSH0 DUP3 DUP3 MSTORE PUSH1 0x20 DUP3 ADD SWAP1 POP SWAP3 SWAP2 POP POP JUMP JUMPDEST PUSH32 0x5769746864726177616C206D7573742062652067726561746572207468616E20 PUSH0 DUP3 ADD MSTORE PUSH32 0x7A65726F00000000000000000000000000000000000000000000000000000000 PUSH1 0x20 DUP3 ADD MSTORE POP JUMP JUMPDEST PUSH0 PUSH2 0x6F3 PUSH1 0x24 DUP4 PUSH2 0x689 JUMP JUMPDEST SWAP2 POP PUSH2 0x6FE DUP3 PUSH2 0x699 JUMP JUMPDEST PUSH1 0x40 DUP3 ADD SWAP1 POP SWAP2 SWAP1 POP JUMP JUMPDEST PUSH0 PUSH1 0x20 DUP3 ADD SWAP1 POP DUP2 DUP2 SUB PUSH0 DUP4 ADD MSTORE PUSH2 0x720 DUP2 PUSH2 0x6E7 JUMP JUMPDEST SWAP1 POP SWAP2 SWAP1 POP JUMP JUMPDEST PUSH32 0x4E487B7100000000000000000000000000000000000000000000000000000000 PUSH0 MSTORE PUSH1 0x11 PUSH1 0x4 MSTORE PUSH1 0x24 PUSH0 REVERT JUMPDEST PUSH0 PUSH2 0x75E DUP3 PUSH2 0x58F JUMP JUMPDEST SWAP2 POP PUSH2 0x769 DUP4 PUSH2 0x58F JUMP JUMPDEST SWAP3 POP DUP3 DUP3 SUB SWAP1 POP DUP2 DUP2 GT ISZERO PUSH2 0x781 JUMPI PUSH2 0x780 PUSH2 0x727 JUMP JUMPDEST JUMPDEST SWAP3 SWAP2 POP POP JUMP JUMPDEST PUSH2 0x790 DUP2 PUSH2 0x529 JUMP JUMPDEST DUP3 MSTORE POP POP JUMP JUMPDEST PUSH0 PUSH1 0x40 DUP3 ADD SWAP1 POP PUSH2 0x7A9 PUSH0 DUP4 ADD DUP6 PUSH2 0x787 JUMP JUMPDEST PUSH2 0x7B6 PUSH1 0x20 DUP4 ADD DUP5 PUSH2 0x598 JUMP JUMPDEST SWAP4 SWAP3 POP POP POP JUMP JUMPDEST PUSH0 DUP2 ISZERO ISZERO SWAP1 POP SWAP2 SWAP1 POP JUMP JUMPDEST PUSH2 0x7D1 DUP2 PUSH2 0x7BD JUMP JUMPDEST DUP2 EQ PUSH2 0x7DB JUMPI PUSH0 DUP1 REVERT JUMPDEST POP JUMP JUMPDEST PUSH0 DUP2 MLOAD SWAP1 POP PUSH2 0x7EC DUP2 PUSH2 0x7C8 JUMP JUMPDEST SWAP3 SWAP2 POP POP JUMP JUMPDEST PUSH0 PUSH1 0x20 DUP3 DUP5 SUB SLT ISZERO PUSH2 0x807 JUMPI PUSH2 0x806 PUSH2 0x506 JUMP JUMPDEST JUMPDEST PUSH0 PUSH2 0x814 DUP5 DUP3 DUP6 ADD PUSH2 0x7DE JUMP JUMPDEST SWAP2 POP POP SWAP3 SWAP2 POP POP JUMP JUMPDEST PUSH32 0x4465706F736974206D7573742062652067726561746572207468616E207A6572 PUSH0 DUP3 ADD MSTORE PUSH32 0x6F00000000000000000000000000000000000000000000000000000000000000 PUSH1 0x20 DUP3 ADD MSTORE POP JUMP JUMPDEST PUSH0 PUSH2 0x877 PUSH1 0x21 DUP4 PUSH2 0x689 JUMP JUMPDEST SWAP2 POP PUSH2 0x882 DUP3 PUSH2 0x81D JUMP JUMPDEST PUSH1 0x40 DUP3 ADD SWAP1 POP SWAP2 SWAP1 POP JUMP JUMPDEST PUSH0 PUSH1 0x20 DUP3 ADD SWAP1 POP DUP2 DUP2 SUB PUSH0 DUP4 ADD MSTORE PUSH2 0x8A4 DUP2 PUSH2 0x86B JUMP JUMPDEST SWAP1 POP SWAP2 SWAP1 POP JUMP JUMPDEST PUSH0 PUSH1 0x60 DUP3 ADD SWAP1 POP PUSH2 0x8BE PUSH0 DUP4 ADD DUP7 PUSH2 0x787 JUMP JUMPDEST PUSH2 0x8CB PUSH1 0x20 DUP4 ADD DUP6 PUSH2 0x787 JUMP JUMPDEST PUSH2 0x8D8 PUSH1 0x40 DUP4 ADD DUP5 PUSH2 0x598 JUMP JUMPDEST SWAP5 SWAP4 POP POP POP POP JUMP JUMPDEST PUSH0 PUSH2 0x8EA DUP3 PUSH2 0x58F JUMP JUMPDEST SWAP2 POP PUSH2 0x8F5 DUP4 PUSH2 0x58F JUMP JUMPDEST SWAP3 POP DUP3 DUP3 ADD SWAP1 POP DUP1 DUP3 GT ISZERO PUSH2 0x90D JUMPI PUSH2 0x90C PUSH2 0x727 JUMP JUMPDEST JUMPDEST SWAP3 SWAP2 POP POP JUMP INVALID LOG2 PUSH5 0x6970667358 0x22 SLT KECCAK256 MSTORE 0xD 0xD4 0xE 0xA6 0x4B GT PUSH25 0x7D6EEC005E0DB5C3CEE09A9E19B3370583878CC1B7BED7D964 PUSH20 0x6F6C634300081A00330000000000000000000000 "
				},
				"gasEstimates": {
					"creation": {
						"codeDepositCost": "475400",
						"executionCost": "infinite",
						"totalCost": "infinite"
					},
					"external": {
						"balances(address)": "2779",
						"deposit(uint256)": "infinite",
						"usdc()": "infinite",
						"withdraw(uint256)": "infinite"
					}
				},
				"methodIdentifiers": {
					"balances(address)": "27e235e3",
					"deposit(uint256)": "b6b55f25",
					"usdc()": "3e413bee",
					"withdraw(uint256)": "2e1a7d4d"
				}
			},
			"storageLayout": {
				"storage": [
					{
						"astId": 29,
						"contract": "base-prototype/ValueLock.sol:ValueLock",
						"label": "balances",
						"offset": 0,
						"slot": "0",
						"type": "t_mapping(t_address,t_uint256)"
					}
				],
				"types": {
					"t_address": {
						"encoding": "inplace",
						"label": "address",
						"numberOfBytes": "20"
					},
					"t_mapping(t_address,t_uint256)": {
						"encoding": "mapping",
						"key": "t_address",
						"label": "mapping(address => uint256)",
						"numberOfBytes": "32",
						"value": "t_uint256"
					},
					"t_uint256": {
						"encoding": "inplace",
						"label": "uint256",
						"numberOfBytes": "32"
					}
				}
			},
			"userdoc": {
				"kind": "user",
				"methods": {},
				"version": 1
			}
		}
	}
}